:02000002B0004C
:1040000000400B00EC670B00000006000C000502EE
:084010000401E50C00000000B2
:04401800F8620B003F
:10401C0009480A49884208B505D0094A824202D0AB
:10402C00121A02F09FF80748074A0021121A02F0F0
:10403C00A7F8014808BD00BF00E6032058670B0035
:10404C006CE603206CE60320EDE7032070B5074E09
:10405C00074C01F0C7F9A41BA4080025AC4200D101
:10406C0070BD56F8043B98470135F7E704670B0021
:10407C0028670B0000F068B808B500F079F8BDE8C7
:10408C00084001F067B900F0DFBE00F0DDBE00F0C3
:10409C00E3BE00F0E1BE0078B0FA80F04009704752
:1040AC00012303707047000098B502F1080323F058
:1040BC00070300AFADEB030D1446684602F052F84F
:1040CC0000230DF8043001F0ABFA074901F07BF83E
:1040DC0001F0A6FA694601F076F84FF47A7001F017
:1040EC00E7F8BD4698BD00BF0C630B0010B588B057
:1040FC000446114904A800F0B6FF01F0BFF80A22EB
:10410C000146684600F0D5FF694604A800F0FBFFA5
:10411C000A4B01680A4A204600F080FA684600F013
:10412C0057FF04A800F054FF0649204608B0BDE82C
:10413C00104000F0A2BC00BF15630B0024630B0001
:10414C0029630B0037630B0008B501F069FA4FF4D3
:10415C00165101F059FA01F063FA044901F033F8F1
:10416C00BDE80840012001F0BDB800BF47630B005B
:10417C0008B5104800F062F990B10E4800F035FB1C
:10418C0001F04EFA0C4901F01EF80C4A0C49094892
:10419C0000F0CFFABDE8084047F2305001F088B883
:1041AC0001F03EFA074901F00EF8BDE8084001485D
:1041BC00FFF79CBF7CE603204E630B0056630B009D
:1041CC0037630B0062630B0013B5084C084920469B
:1041DC0000F049FF002300932168064B064840F28B
:1041EC005B7200F04FF802B010BD00BF6CE603200C
:1041FC008B630B00B5400B007CE6032091F85C3020
:10420C0010B50446016013B1886D00F079FC2046AE
:10421C0010BD10B5036893F85C20044612B1986D7C
:10422C0000F076FC204610BDF8B51F469DF82430F2
:10423C0004460D4616462BB1012380F85C305830ED
:10424C0000F056FC089B23630023636306B1A6644D
:10425C0025B1294604F1380000F019FF069B2365AF
:10426C00079BE069A4F84C70FF2BB8BFFF23A4F8A0
:10427C00543008B1FFF70BFFB4F85400FFF705FFFB
:10428C00E061F8BD2DE9FF4104460025174698462C
:10429C000E4601F0F5FC0D49E56104F1380000F023
:1042AC00E2FE9DF82830A564CDE90283FF220F239E
:1042BC00CDE90032204684F85C503B462A46314614
:1042CC00FFF7B2FF204604B0BDE8F0814D630B0050
:1042DC0010B50446204601F02FFC0028FAD02046E9
:1042EC0001F038FAC0B210BD2DE9F04705468846FA
:1042FC00FFF7EEFFEB691870EB6993F800A04FF035
:10430C0001090AF0F00A00274C462846FFF7E0FFA7
:10431C002646EB69985500F07F0313FB09F31F4405
:10432C0001340306A4B2BFB24FEAC919EDD4631E1F
:10433C00BAF1300F88F800301ED12846FFF7C8FFBD
:10434C00EB6918552846FFF7C3FFF41C0236B6B2CA
:10435C00EB69A4B298550226B6B2BE420ED22846DC
:10436C00FFF7B6FFB5F85430A34284BFEB6918557C
:10437C000134A4B20136EFE70026EDE7B5F854306E
:10438C00A3422CBF20460020BDE8F0872DE9F34165
:10439C0015461E461A4607460023964602A802F00A
:1043AC007F0CBEF17F0F03F10104034488BF4CF076
:1043BC00800CBEF17F0F4FEAD212E4B203F804CCAA
:1043CC001ED8C4F10403C4F10500E954224601A926
:1043DC00284405EB030801F0C5FE721C224441463B
:1043EC00384601F0A2F9054600F06AFB621C7862BF
:1043FC003244A8B2131A5842584102B0BDE8F081B9
:10440C002346CAE70233F0B5054698B20023CE5CCA
:10441C009CB256B1B5F854C0844503F1010704D9D8
:10442C00441C16543B46A0B2F1E799B2411A0A4417
:10443C00210A02F8021C02F8013CF0BD38B5044612
:10444C0001F09CFA002814BF0125002502D120465A
:10445C0001F0CCFB284638BD2DE9F04788B0044666
:10446C00DDF840809DF850A0894617461E46FFF7A0
:10447C00E5FF0546002840F0CD80214601A8FFF756
:10448C00BDFEA16C002940F08880B4F84C20A16BD3
:10449C002B46204601F0F4F900287AD0012323841E
:1044AC009DF85430E269042B5B4B40F08180186816
:1044BC0099889B79ADF80C108DF80E300290C2F8EB
:1044CC0005009DF80E30BDF80C10A2F80910D3723F
:1044DC000C23B8F1000F00F081809DF848009DF886
:1044EC004420400140EAC20040F00600C0B2BAF1DC
:1044FC00000F01D100F0FD001FB1002E70D140F073
:10450C008000E269D054226DE169581C12120A54E1
:10451C009A1CE169206D88540333E26949462046B0
:10452C00FFF770FF0346B8F1000F0BD0E26941466C
:10453C002046FFF767FFE269139903462046FFF711
:10454C0061FF034667B1E26939462046FFF75AFF1F
:10455C0003462EB1E26931462046FFF753FF03466E
:10456C00053BE2699BB210212046FFF70FFF00F0DC
:10457C00A7FAC4E909004FF47A76204601F0DCFA78
:10458C0088BB00F09DFAA36AC01A236D734398424E
:10459C00F3D9204601F02AFB35E002A800F0D2FF47
:1045AC00B4F84C202B4602A9204601F049FA73E7D7
:1045BC00D3F80700D3F80B10DB7B0DF1080CACE83B
:1045CC0003008CF8003002AB03CBC2F80500C2F834
:1045DC0009109CF8003053730E237AE7022086E70B
:1045EC0040F0C0008DE702A92046FFF77DFE0428AD
:1045FC00CFD1E369DE78002ECBD100F061FA012532
:10460C00A06284F82C6001A8FFF703FE284608B0CE
:10461C00BDE8F0870025F9E798630B0010B54FF063
:10462C00040C86B00124CDE9044C0024CDE90244ED
:10463C00CDE90044FFF710FF06B010BD2DE9F74F90
:10464C00DDF83C809DF834509DF8389004468B463C
:10465C0016461F46FFF7F2FE8246002851D021462F
:10466C0001A8FFF7CBFDB4F85420E069002101F05C
:10467C0087FD0523E26959462046FFF7C3FE6B1EF2
:10468C00012B15D8218CE369013189B22184090AE7
:10469C001954421CE369218C92B20230995480B2B5
:1046AC00B8F1000F04D0238C5A1C2284A8F80030D7
:1046BC0000210B188F42E2699BB20AD9B4F854C09E
:1046CC009C4506D916F801C002F803C0013189B225
:1046DC00EFE79DF8301000290CBF30213121B9F1E2
:1046EC00000F01D041F00801022D0ED141F0040160
:1046FC00053B9BB22046FFF749FE824601A8FFF717
:10470C0088FD504603B0BDE8F08F012D08BF41F085
:10471C000201EDE71FB5089C0394002402949DF858
:10472C001C4001949DF818400094FFF787FF04B0DB
:10473C0010BD30B587B0044610460591049201F0C7
:10474C0067FD00250346CDE90155DDE904210095FF
:10475C002046FFF7DFFF07B030BD73B504460E46A9
:10476C00FFF76CFE0546C8B1214601A8FFF746FDD0
:10477C00E36962221A70E36902225A70E369320A11
:10478C009A70E369DE70E1690422204600F0CDFFE7
:10479C00051E01A818BF0125FFF73BFD284602B0F6
:1047AC0070BD73B504460E46FFF748FE0546C8B10A
:1047BC00214601A8FFF722FDE36972221A70E36912
:1047CC0002225A70E369320A9A70E369DE70E16979
:1047DC000422204600F0A9FF051E01A818BF0125E0
:1047EC00FFF717FD284602B070BD2DE9F04F2DEDF7
:1047FC00028B87B000AF0446FFF720FE8146F8B16C
:10480C00214607F11400FFF7F9FC00F059F9236D6C
:10481C004FF47A725343A26A821A9A42064603D81C
:10482C00626A821A934221D294F82C307BB12046D2
:10483C0001F0DCF94FF0000907F11400FFF7E9FC77
:10484C0048461C37BD46BDEC028BBDE8F08FE269D3
:10485C00C0211170E2695370E1690222204600F018
:10486C0064FFC4E90966012384F82C30204601F06A
:10487C0063F90028E0D007F113012046FFF734FD5F
:10488C0083460028D8D0E369A662197801F0F002BB
:10489C00302A7FD1D4F830A0BAF1000FCCD097F8E1
:1048AC0013C06A4608EE102A03EB0C025178957877
:1048BC0005EB0125ADB205F108026946D208A1EB62
:1048CC00C20295460CF10302FA6003EB020E0DEBEB
:1048DC0005026846C7F808D07A60D7E901218A42F8
:1048EC0006D00A461EF8018B02F8018BBA60F4E779
:1048FC000022425593F80080F96808F00608ABEBEB
:10490C000C02033AB8F1020FA2EB0502294425D19F
:10491C0013F801E01944023A91F801B00CF10501C9
:10492C00294419440BEB0E2BD047E36940221A7033
:10493C00E3691FFA8BFB83F80180E3694FEA1B22C2
:10494C009A70E36983F803B0E1690422204600F011
:10495C00ECFE666218EE103A9D466DE7B8F1040F56
:10496C0015D113F801E01944023A91F801B00CF199
:10497C000501294419440BEB0E2BD047E369502257
:10498C001A70E36902221FFA8BFB5A70D5E719449F
:10499C00D047DFE7502A08D19A78D97801EB022169
:1049AC0089B22046FFF7D9FE46E7402A12D1626B46
:1049BC00002A3FF441AFBBF1040F7FF43DAF11F07F
:1049CC00060F7FF439AF9978D87800EB012080B2CC
:1049DC00904731E7602A08D19A78D97801EB022107
:1049EC0089B22046FFF7DDFE26E7702ADFD0902A39
:1049FC003FF422AFC02A0AD1D0221A70E3690022F8
:104A0C005A70E1690222204600F08FFE14E7D02A8A
:104A1C0004BF002384F82C300EE7F7B504460F468C
:104A2C001646FFF70BFD054610B3214601A8FFF70C
:104A3C00E5FB238C01339BB2EBB12384238CE2691D
:104A4C001B0A5371E369228C9A71E2690723394678
:104A5C002046FFF7D7FCE3691E54043883B2E269A1
:104A6C0082212046FFF792FC054601A8FFF7D1FBF7
:104A7C00284603B0F0BD0123DFE70022FFF7CDBFCE
:104A8C0008B5024B1B689B68019308BD68020300C4
:104A9C0008B5024B1B68DB68019308BD6802030074
:104AAC0008B5024B1B685B69019308BD6C020300DF
:104ABC0008B5024B1B685B68019308BD1802030024
:104ACC0008B5024B1B685B69019308BD1802030013
:104ADC0008B5024B1B689B6D019308BD18020300BF
:104AEC0008B5024B1B685B6E019308BD18020300EE
:104AFC0008B5024B1B681B6B019308BD48020300F1
:104B0C0008B5024B1B689B6B019308BD4802030060
:104B1C0008B5024B1B681B6C019308BD48020300CF
:104B2C0008B5024B1B685B6C019308BD480203007F
:104B3C0008B5024B1B685B69019308BD6402030056
:104B4C0008B5024B1B681B6A019308BD6402030085
:104B5C0008B5024B1B689B6A019308BD64020300F5
:104B6C0008B5024B1B68DB68019308BD3C020300CF
:104B7C0008B5024B1B681B69019308BD3C0203007E
:104B8C0008B5024B1B685B69019308BD3C0203002E
:104B9C0008B5024B1B689B69019308BD3C020300DE
:104BAC0008B5024B1B68DB69019308BD3C0203008E
:104BBC0008B5024B1B689B6A019308BD3C020300BD
:104BCC0008B5024B1B681B6C019308BD3C0203002B
:104BDC0008B5024B1B689B69019308BD38020300A2
:104BEC0008B5024B1B68DB69019308BD3802030052
:104BFC0008B5024B1B681B6A019308BD3802030001
:104C0C0008B5024B1B689B6A019308BD3802030070
:104C1C0008B5024B1B681B6B019308BD38020300DF
:104C2C0008B5024B1B689B6B019308BD380203004F
:104C3C0008B5024B1B681B68019308BD4C020300AE
:104C4C0008B5024B1B685B68019308BD4C0203005E
:104C5C0008B5024B1B681B69019308BD4C0203008D
:104C6C0008B5024B1B685B69019308BD4C0203003D
:104C7C0008B5024B1B689B69019308BD4C020300ED
:104C8C0008B5024B1B68DB69019308BD4C0203009D
:104C9C0008B5024B1B681B6A019308BD4C0203004C
:104CAC0008B5024B1B689B68019308BD60020300AA
:104CBC0008B5024B1B68DB68019308BD600203005A
:104CCC0008B5024B1B689B69019308BD6002030089
:104CDC0008B5024B1B681B6D019308BD60020300F5
:104CEC0008B5024B1B681B68019308BD200203002A
:104CFC0008B5024B1B685B68019308BD20020300DA
:104D0C0008B5024B1B685B69019308BD20020300C8
:104D1C0008B5024B1B689B6D019308BD2002030074
:104D2C0008B5034B1B68D3F88830019308BD00000D
:104D3C002002030008B5034B1B68D3F89430019391
:104D4C0008BD00002002030008B5024B1B685B681D
:104D5C00019308BD4002030008B5024B1B689B6819
:104D6C00019308BD4002030008B5024B1B68DB68C9
:104D7C00019308BD4002030008B5024B1B681B6978
:104D8C00019308BD4002030008B5024B1B685B6928
:104D9C00019308BD4002030008B5024B1B689B69D8
:104DAC00019308BD4002030008B5024B1B68DB6988
:104DBC00019308BD4002030008B5024B1B681B6A37
:104DCC00019308BD4002030008B5024B1B681B6B26
:104DDC00019308BD4002030008B5024B1B685B6BD6
:104DEC00019308BD4002030008B5024B1B681B6C05
:104DFC00019308BD4002030008B5024B1B685B6CB5
:104E0C00019308BD4002030008B5024B1B689B6868
:104E1C00019308BD4402030008B5024B1B685B6993
:104E2C00019308BD4402030008B5024B1B681B6BC1
:104E3C00019308BD4402030008B5024B1B68DB6BF1
:104E4C00019308BD4402030008B5024B1B681B68A4
:104E5C00019308BD1C02030008B5024B1B685B687C
:104E6C00019308BD1C02030008B5024B1B689B682C
:104E7C00019308BD1C02030008B5024B1B68DB6BD9
:104E8C00019308BD1C02030008B5024B1B681B6C88
:104E9C00019308BD1C02030008B5024B1B685B6C38
:104EAC00019308BD1C020300002240681146FFF765
:104EBC0083BF002240681146FFF78EBF4068002276
:104ECC00FFF782BF4068002281F00101FFF76CBF41
:104EDC00002340681A461946FFF75EBF002340685E
:104EEC001A461946FFF750BF002240681146FFF7DB
:104EFC0043BF002240681146FFF72EBF40680022D6
:104F0C000221FFF731BF002340681A46FFF71CBF90
:104F1C00024B03225A60024A1A607047DCE60320F7
:104F2C00B0630B00054B02221A60054B054A9A60D0
:104F3C000020C3E90000FFF7DBBE00BFF0E6032052
:104F4C00E4E603200000FFFF2DE9F041931E8CB036
:104F5C00222B4FF000030D4614468DF82C3027D928
:104F6C0000282ADA2E462D2306F8013B40420A245B
:104F7C000DF12B074FF001082246014601A801F064
:104F8C00DDF8029B0198092BCCBF3722302252FA54
:104F9C0083F307F8013908F101080028ECD14246E7
:104FAC00791C304601F0DEF828460CB0BDE8F081E3
:104FBC000A2AD5D018B12E46DAE70A24FAE73023AC
:104FCC008DF82B302E460DF12A074FF00208E6E73C
:104FDC0010B504460068FFF73FFF204610BD10B522
:104FEC000446006808B1FFF737FF0023C4E901331A
:104FFC00236010BD38B504460D4600680131FFF73B
:10500C0033FF10B1C4E90005012038BD10B50368A9
:10501C00044623B143688B4201D3012010BD2046C6
:10502C00FFF7E8FF0028F9D0A368002BF5D1226820
:10503C001370F2E737B50D46114601920446FFF79F
:10504C00E5FF019A28B92046FFF7C9FF204603B0B7
:10505C0030BDA2602946206801F084F82268A3685C
:10506C000021D154F2E7002313B5C0E90033044604
:10507C008360037341B10846019101F0C9F80199AD
:10508C0002462046FFF7D6FF204602B010BD13B5EE
:10509C00044659B10846019101F0BAF8019902464B
:1050AC002046FFF7C7FF204602B010BDFFF797FF61
:1050BC00F9E710B504468AB00023C4E90033A360B5
:1050CC002373084601A9FFF73FFF01A92046FFF70C
:1050DC00DEFF20460AB010BD70B505460E4609B974
:1050EC00002070BD6AB1846814442146FFF78EFF1E
:1050FC000028F5D02868AB683146184401F080F8D8
:10510C00AC600120EDE710B58A6809680446FFF72A
:10511C00E3FF10B92046FFF762FF204610BD10B523
:10512C004368013B0446436063B903689B68984736
:10513C00A368013BA3602BB923682046DB68BDE85C
:10514C001040184710BD0000024800230360FFF711
:10515C00E7BC00BFF4E60320F8B506460D468F18F1
:10516C000024BD420CD0336815F8011B9B683046F7
:10517C009847031E01DB1C44F3E7002C08BF1C46B8
:10518C002046F8BD13B50446084659B1019101F00B
:10519C003FF823680199DB680246204602B0BDE85F
:1051AC001040184702B010BD03689B68184738B50B
:1051BC000D210546FFF7F8FF0A2104462846FFF7A4
:1051CC00F3FF204438BD38B50546FFF7DBFF044636
:1051DC002846FFF7ECFF204438BD30B58BB00023D8
:1051EC00012A8DF8243098BF0A2209AC0D46B1FB78
:1051FC00F2F101FB125303F0FF03092B94BF303380
:10520C003733DBB2AA4204F8013DEFD92146FFF750
:10521C00B9FF0BB030BD0000014B024A1A60704759
:10522C00F8E60320EC630B0008B50020FFF7FCFD4B
:10523C0028B1FFF7F1FD80F00100C0B208BD0120DC
:10524C00FCE710B50020FFF743FC0446A0B9FFF7BC
:10525C0047FD012810D12046FFF75AFD60B9FFF732
:10526C00E3FF10B9FFF7D0FDF9E7FFF7DDFFBDE86D
:10527C0010400020FFF72CBC204610BD1FB5FFF7D7
:10528C00E0FF10220021684600F07AFF00216846FA
:10529C00FFF726FC009805B05DF804FB024B1A687A
:1052AC00024B1A60704700BF00E60320FCE60320A7
:1052BC000021FFF725BD000010B5044B0360044628
:1052CC00806908B1FFF72BFF204610BDBC640B00B2
:1052DC0010B50446FFF7F0FF20461C21FEF7D9FE5F
:1052EC00204610BD10B50446FFF7EAFC844208D0F6
:1052FC001CB1BDE81040FFF7D3BCBDE81040FFF770
:10530C00D7BC10BD014B00229A60704700E7032008
:10531C00014B1860704700BF04E6032008B50B4B27
:10532C0043B100F07DF903681B699847002801DD43
:10533C00AFF30080064B43B100F0C2FD03681B695C
:10534C009847002801DDAFF3008008BD0000000085
:10535C000000000008B5FFF7E1FFFFF7B1FB014BC0
:10536C00186008BD58E703200548064A064908B5E9
:10537C00121A00F0F7FE054B054A1A6008BD00BF73
:10538C0000F4032004F4032054670B0000F4032002
:10539C001E1C279A07B5002300931A466FF077015D
:1053AC00FFF7C8FC03B05DF804FB000007B54388A9
:1053BC000A2B08D0502B0BD1094B1B684BB103B0F7
:1053CC005DF804EB1847FFF7E5FF03B05DF804FB4D
:1053DC00002300931A466FF07701FFF7ABFCF4E75C
:1053EC0014E7032010B512480021FFF755FD114BAF
:1053FC001A68114B9A42114B0CBF012200221A70F1
:10540C0001D0FFF7B1FFFFF753FB044600F0C0FEDD
:10541C000B4B13B12046AFF3008000210848FFF777
:10542C000BFDBDE8104007480021FFF779BC00BF19
:10543C001D530B0000F403201E1C279A10E70320B9
:10544C0000000000B9530B00704710B5182104463A
:10545C00FEF71FFE204610BDF0B5037D062B8DB068
:10546C000E4600F104074FF0000412D000F10805BD
:10547C0015F8011D0A223046FFF7AFFEAF42044477
:10548C0019D0002CF4D02E213046FFF78DFE0444A9
:10549C00EEE72F236A4639460A208DF80040FFF7C5
:1054AC0047FB684600F0B4FE33680246DB68694689
:1054BC0030469847044620460DB0F0BD10B5054B5C
:1054CC000446112240F8043B002100F059FE20460E
:1054DC0010BD00BF14640B000346074A10B543F817
:1054EC00042B01F1100251F8044B43F8044B914288
:1054FC00F9D10A781A7010BD14640B00037D042BCB
:10550C0004D14068003818BF01207047062B07D122
:10551C0043683BB983682BB9C3681BB90069F1E7D1
:10552C00002070470120704710B59DF8084044EAF0
:10553C00032343EA024242EA0161042341600375FA
:10554C0010BD000007B5064B0360CB7800938B7839
:10555C004A780978FFF7E8FF03B05DF804FB00BF59
:10556C0014640B00417470477047704708B50021F4
:10557C00007CFFF77DFB40EAE07008BD08B5012117
:10558C00007CFFF775FB40EAE07008BD08B5007CB5
:10559C00FFF766FB20EAE07008BD08B5007CFFF75A
:1055AC0057FB20EAE07008BD13B50446007C01915E
:1055BC00FFF756FB0028019901DC607C20B1207CB0
:1055CC00FFF75EFB20EAE07002B010BD007CFFF735
:1055DC005FBB10B514210446FEF75BFD204610BDE1
:1055EC0010B54FF47A73044608460021C4E9011340
:1055FC00044B23600123207463741146FFF718FBDE
:10560C00204610BD28640B00007C0022FFF718BB5D
:10561C0010B514220446002100F0B2FD204610BD46
:10562C0010B50F4C88B003A8FFF7F2FF2178BFF339
:10563C005B8F11F001010FD120460191FEF72BFD7C
:10564C00019948B103AA0748FFF7CAFF2046FEF7A5
:10565C0027FD054800F06CFD024808B010BD00BFE6
:10566C0018E703201CE7032075550B0070474174A5
:10567C00704708B5007CFFF79BFA20EAE07008BD84
:10568C0008B5007CFFF774FA20EAE07008BD08B595
:10569C00007CFFF77DFA40EAE07008BD08B5007C9D
:1056AC00FFF76EFA40EAE07008BD007CFFF778BAAD
:1056BC0037B5457C04462DB1207C03B0BDE83040A5
:1056CC00FFF74EBA007C0191FFF772FA002801999E
:1056DC00F2DC284603B030BD10B514210446FEF7A9
:1056EC00D8FC204610BD000010B54FF47A73044668
:1056FC00084611460022C4E90123044B2360012310
:10570C0020746374FFF75CFA204610BD58640B00DC
:10571C0013B503688DF80710DC6B01224FF0FF33D3
:10572C000DF10701A04702B010BD10B40368DC6B8B
:10573C004FF0FF33A4465DF8044B604713B5134696
:10574C0002688DF80710D46B0DF107010122A047F8
:10575C0002B010BD10B54369B3F88620B3F884309D
:10576C009A42044608D06369B3F88420511CA3F80C
:10577C0084101344187910BD03681B6998470028DE
:10578C00F1D14FF0FF30F6E7704743691868C0431A
:10579C00C00F704770470000064B994210B500F1DE
:1057AC000C0405D0084600F0B1FB002808BF00240B
:1057BC00204610BDE4630B0010B5AC210446FEF787
:1057CC0068FC204610BDAC21FEF763BC2DE9F0410E
:1057DC004FF0000886B01C46C0F8048005460E4603
:1057EC0017464146102202A800F0CAFC631C09D0DF
:1057FC004FF47A73B4FBF3F203FB1244CDE90228A5
:10580C005C430494686910230093006802AB41F276
:10581C00050240F6FF71FFF7DBF9002807DAFFF706
:10582C002BFB03686B60002006B0BDE8F081686953
:10583C00002300683A463146FFF7EAF9031EEEDB17
:10584C001846F1E730B587B0044601AD6846FFF75E
:10585C0079FE0FCD04340FC42B68237007B030BD14
:10586C0070B54D69054B04468C3544F8043B06462F
:10587C000FCD0FC42B682370304670BD14640B0021
:10588C002DE9F0439846036893B00D460024DB6A7B
:10589C0006461746984728466B46224621460094F2
:1058AC00FFF7F6F80546002863D1009B002B4BD080
:1058BC005B69002B48D006A8FFF700FE009B5C69D3
:1058CC006378022B04D1211D06A8FFF7BBFF26E04D
:1058DC000A2B24D11122294601A800F051FCA368FF
:1058EC00002B38D004F108030DF1040C183418689F
:1058FC005968624603C20833A3429446F7D1062383
:10590C0001A90CA88DF81430FFF7E6FD0DF1340C4D
:10591C00BCE80F0007AC0FC4DCF80030237006A8FD
:10592C00FFF7ECFD80B1336807ADD3F82090124B34
:10593C000C930FCD0DAC0FC42B6823703A46434625
:10594C000CA93046C84705460098FFF799F8284639
:10595C0013B0BDE8F083E368002BC3D14FF6FF70A2
:10596C00D4F81090FFF7ECF88145BBD104F1140189
:10597C00AAE72546E8E700BF14640B0038B5436975
:10598C001A68002A054610DAB3F88620B3F884307A
:10599C009A420AD103681B699847044628B92B68B8
:1059AC002846DB6A9847204638BD0120FCE710B535
:1059BC004369B3F88620B3F884309A42044605D084
:1059CC006369B3F884201344187910BD03681B690C
:1059DC0098470028F4D14FF0FF30F6E7F8B543694B
:1059EC001746B3F88620B3F884309A4205460E4623
:1059FC0016D06969B1F88430B1F88640E41ABC421B
:105A0C0028BF3C46043322461944304600F0AAFB1A
:105A1C006A69B2F884302344A2F884302046F8BD79
:105A2C0003681B6998470028E3D14FF0FF34F5E772
:105A3C0042690023A2F884304269A2F8863070478C
:105A4C002DE9F0411F4603680C46DB6A8AB0054617
:105A5C0016469847237DD5F81480042B0CBF0220E2
:105A6C000A2006220121FFF7DBF8C8F800006B6959
:105A7C001B68002B08DA2B682846DB6A0024984741
:105A8C0020460AB0BDE8F0812846FFF7D1FFB7B138
:105A9C00002303A9F8B20393ADF81030FFF700F818
:105AAC000028E8D1686906230093006803AB41F233
:105ABC000B0240F6FF71FFF78BF80028DBD11C229C
:105ACC00002103A800F05CFB237D042B1DD14FF4B7
:105ADC0007733046ADF80C30FFF73AF8ADF80E000E
:105AEC006068FFF72DF804906B691C22186803A9F5
:105AFC00FFF77EF80028BED104340FCC6D698C35CD
:105B0C000FC523682B700124BAE740F61C233046DE
:105B1C00ADF80C30FFF71CF805AEADF80E00231DE8
:105B2C0004F1140718685968324603C20833BB42A3
:105B3C001646F7D1D8E7000030B54269B2F8863086
:105B4C008BB004462BB1B2F884209A4201D1FFF7F6
:105B5C006FFF61690868002818DBB1F886507F2D4B
:105B6C0014D804310823C5F180022944FFF748F802
:105B7C00002813DD6369B3F886200AB9A3F88420E2
:105B8C006369B3F886201044A3F886006369B3F800
:105B9C008600B3F88430C01A0BB030BDFFF76CF937
:105BAC0003680B2BF2D0FFF767F903680B2BEDD0D2
:105BBC0020230025CDE90235FFF75EF90368019338
:105BCC00084B0949009302AA2B463220FFF780F8B4
:105BDC0063691868FFF704F863694FF0FF321A60C5
:105BEC00D4E700BF87640B0080640B0010B54369D9
:105BFC0004461868002801DBFEF7F2FF63694FF0DA
:105C0C00FF321A606069112200218C3000F0B8FA62
:105C1C002046BDE81040FFF70BBF10B5002304462B
:105C2C000160C0F884308830FFF748FC204610BD76
:105C3C0073B500234FF47A72C0E901320E4A036146
:105C4C00026043610446AC200191FEF71CFA051E6C
:105C5C0005F10C0608D00123C5E90133074B019966
:105C6C002B603046FFF7D9FF2046C4E90565FFF7E6
:105C7C00DFFE02B070BD00BFBC640B00A0640B0063
:105C8C0010B54FF0FF310446FFF7D2FF204610BD90
:105C9C0010B504460068002801DBFEF7A1FF204682
:105CAC0010BD0C30FFF7F4BF002240681146FFF71F
:105CBC0063B8002240681146FFF77EB800224068A6
:105CCC001146FFF789B840680022FFF77DB840689D
:105CDC00002281F00101FFF767B8002340681A46E3
:105CEC001946FFF759B8002340681A461946FFF7C2
:105CFC004BB8002240681146FFF72EB840680022CE
:105D0C000221FFF731B8002340681A46FFF71CB890
:105D1C00024B04225A60024A1A60704730E7032093
:105D2C0008650B00002340681A46FFF70DB8406861
:105D3C0000220221FFF718B8002240681146FFF735
:105D4C000BB8002240681146FFF716B800234068D4
:105D5C001A461946FFF718B8002340681A46194628
:105D6C00FFF71AB840680021FFF73EB840680021E1
:105D7C00FFF742B84068002281F00101FFF714B828
:105D8C0040680022FFF720B8002240681146FFF758
:105D9C0023B8002240681146FFF70EB82DE9F043F6
:105DAC0095B014460D460746FFF788FB00211C22D0
:105DBC000DA8009100F0E4F940230C9320466B46AB
:105DCC000CAA0021FEF764FE044600284BD10246C3
:105DDC0001216868FEF7D0FF0221804622466868E0
:105DEC00FEF7CAFF009E81462146002E3BD00029BB
:105DFC0039D17368022B03D00A2B11D0F669F4E762
:105E0C00B8F1000FFAD0716906A8043107ADFFF79D
:105E1C0099FB0FCD3C1D0FC42B6823704146EDE759
:105E2C00B9F1000FEAD07469102201A800F0A8F9AA
:105E3C0006238DF8143001AD04F1080318341868EA
:105E4C0059682A4603C20833A3421546F7D101A963
:105E5C0006A807ADFFF740FB0FCD3C1D0FC42B6808
:105E6C0023704946CAE70098FEF70AFE384615B07B
:105E7C00BDE8F083024B034A1A6000225A60704757
:105E8C0038E7032044650B007047000038B5044622
:105E9C0014252A46002100F073F925804025074976
:105EAC0025812846258200F02FF804496060284699
:105EBC0000F02AF8E060204638BD00BF78650B0082
:105ECC0030B50E4D2978BFF35B8F11F0010487B00C
:105EDC0011D12846FEF7DFF868B101A8FFF7D6FF0D
:105EEC0001AA21460648FFF7FFFB2846FEF7D8F823
:105EFC00044800F01DF9024807B030BD40E703200C
:105F0C0044E70320955E0B00FEF7BFB8014900F093
:105F1C00F9B800BF94650B007FB500241023CDE9C0
:105F2C000234036815469E6912686B46CDE900443D
:105F3C00B0479DF8043003F00603062B03BF009B0B
:105F4C002B600120204604B070BD0098904214BF15
:105F5C00012006207047000010B5034B0360044677
:105F6C0000F0CDF8204610BDD4650B0010B50446EA
:105F7C00FFF7F2FF20460821FEF78BF8204610BDF4
:105F8C002DE9F0411F46DDE90834DDF8188098450D
:105F9C000646154607D1079900F0B4F818B165719B
:105FAC000020BDE8F0813946304600F0ABF80028FF
:105FBC00F6D00123C4F800802571A371F0E738B541
:105FCC0015461C4600F09EF820B10823E36006231A
:105FDC002560237138BD73B505460C4601921E46EB
:105FEC0000F090F850B9032E08D82368019A5B6929
:105FFC002946204602B0BDE87040184702B070BD7B
:10600C0010B5034B03600446FFF7A6FF204610BDF6
:10601C0034660B0010B50446FFF7F2FF20460C2146
:10602C00FEF737F8204610BDF7B5089F9742054696
:10603C000E4614460AD0A86802680897156A3146BD
:10604C002246AC4603B0BDE8F040604719460193C8
:10605C0000F058F8019B0028EDD0062003B0F0BDED
:10606C002DE9F14F0D461946DDE90A4BDDE90CA689
:10607C0081461746984600F045F890B1002D3460E3
:10608C00377109DB61198A450CBF06210121B171F9
:10609C00002001B0BDE8F08F0235F9D10123B371B6
:1060AC00F6E7544506D15946484600F02BF808B19E
:1060BC007771EDE7D9F808000368CDE90CA6CDE9B6
:1060CC000A4BDC693A4643462946A44601B0BDE872
:1060DC00F04F60472DE9F04107460C4615461E4629
:1060EC00FFF76DFF48B9B86803689F692A463346C5
:1060FC002146BC46BDE8F0416047BDE8F0817047E1
:10610C0000207047814208B50ED0406803782A2BD6
:10611C000CD049680B782A2B08BF013100F066F8C7
:10612C00B0FA80F0400908BD0120FCE70020FAE736
:10613C00002301461A46184600F072B8002910B523
:10614C0091FBF2F402FB141306DB002B01DA013491
:10615C009B1AC0E9004310BD002BC4BF04F1FF34EF
:10616C009B18F6E70A44914200F1FF3300D17047C7
:10617C0010B511F8014B03F8014F9142F9D110BD44
:10618C0002440346934200D1704703F8011BF9E720
:10619C0038B5104B1D68AB6B0446B3B91820FEF72D
:1061AC0053FE0246A86320B90B4B0C484221FEF764
:1061BC006BFE0B490B4BC0E900130B4B83600B239D
:1061CC00838100210120C2E90401AB6B00221C6118
:1061DC005A6138BD04E603206D660B0084660B0023
:1061EC000E33CDAB34126DE6ECDE050010F8012B4E
:1061FC0011F8013B012A28BF9A42F7D0D01A7047F8
:10620C00034611F8012B03F8012B002AF9D1704732
:10621C00034613F8012B002AFBD1181A01387047DA
:10622C002DE9F843DFF8B8800646D8F800001F4681
:10623C000D46914600F056F8254B1C6834B9254C98
:10624C001C60254B13B11B68C4F8883063681F2B86
:10625C0007DDD8F8000000F047F84FF0FF30BDE83C
:10626C00F8834EB3D4F8880088B91C4B23B9D8F8FE
:10627C00000000F038F8F0E74FF48470FEF7E4FD0E
:10628C000028F4D00023C0E94033C4F888006368C8
:10629C0040F8239001229A4000EB8301D0F80031A2
:1062AC001343C0F80031022EC1F8807002BFD0F841
:1062BC0004311343C0F804316368D8F800005A1C49
:1062CC000233626044F8235000F00EF80020C6E759
:1062DC00E8E703205CE7032000000000554E0B00AC
:1062EC0068E6032070477047704700001D400B00A4
:1062FC0059400B0081400B0085400B000000000052
:10630C0043616C6C6261636B004D426C6173686BD2
:10631C00694172676F6E5F0031323334004D426CED
:10632C006173686B694172676F6E00696E546F7050
:10633C0069632F6D65737361676500537461727463
:10634C0021005075626C6973680068656C6C6F2015
:10635C00776F726C6400446973636F6E6E656374FF
:10636C0065642120547279696E6720746F207265A0
:10637C00636F6E6E656374206E6F772E2E2E0031F8
:10638C0039322E3136382E302E32360000044D5133
:10639C0054540400064D514973647003000000000E
:1063AC0000000000134F0B00094F0B00FF4E0B00B9
:1063BC00F54E0B00E94E0B00DD4E0B00715D0B0032
:1063CC00795D0B00D14E0B00C94E0B00BF4E0B007C
:1063DC00B54E0B00A95D0B00000000000000000092
:1063EC006170700025592D256D2D25645425483A72
:1063FC00254D3A2553257A0061736374696D6500E8
:10640C00000000000000000065540B0055540B0008
:10641C0057540B00000000000000000077550B00E3
:10642C00DF550B00B5550B0065510B00A7550B0044
:10643C0079550B0089550B00D9550B0099550B005C
:10644C0071550B00000000000000000079560B0095
:10645C00E5560B00BD560B0065510B008D560B001D
:10646C00A9560B009B560B00B7560B007B560B0026
:10647C007F560B00776972696E67007265637620D0
:10648C006572726F72203D202564000000000000D0
:10649C0000000000A1570B00C5570B00AF5C0B00B0
:1064AC00D3570B00A5570B000000000000000000A4
:1064BC00C5520B00DD520B001D570B0037570B005C
:1064CC00455B0B0061570B00BB590B0095570B003C
:1064DC004D5A0B008D580B00E9590B00F95B0B0062
:1064EC0089590B0097570B0049570B00D9570B00D4
:1064FC006D580B000000000000000000135D0B0045
:10650C00095D0B00FF5C0B00B55C0B00F35C0B0032
:10651C00E75C0B00715D0B00795D0B00DB5C0B0025
:10652C00D35C0B00C95C0B00BF5C0B00A95D0B00BE
:10653C000000000000000000315D0B003B5D0B0013
:10654C00455D0B004F5D0B00595D0B00655D0B004D
:10655C00715D0B00795D0B00815D0B008D5D0B0097
:10656C00955D0B009F5D0B00A95D0B000053743112
:10657C00395F53705F6D616B655F736861726564E1
:10658C005F74616700000000D4650B0079650B0037
:10659C0034660B00A8650B0058660B004E31305F5B
:1065AC005F637878616269763131375F5F636C6104
:1065BC0073735F747970655F696E666F4500000078
:1065CC00000000009C650B00655F0B00795F0B0001
:1065DC000D610B000D610B00E35F0B00255F0B00E1
:1065EC00CB5F0B008D5F0B00575F0B0034660B000D
:1065FC0004660B009C650B004E31305F5F6378784E
:10660C00616269763132305F5F73695F636C6173AD
:10661C00735F747970655F696E666F45000000008A
:10662C0000000000F8650B000D600B0021600B00F2
:10663C000D610B000D610B00E35F0B00255F0B0080
:10664C00E1600B006D600B0035600B00D4650B0036
:10665C0060660B00537439747970655F696E666F90
:10666C00005245454E54206D616C6C6F6320737500
:10667C0063636565646564002F6D6E742F776F724C
:10668C006B73706163652F776F726B737061636589
:10669C002F4743432D31302D706970656C696E65E1
:1066AC002F6A656E6B696E732D4743432D31302D08
:1066BC00706970656C696E652D34385F32303230BC
:1066CC00313132345F313630363138303634312F67
:1066DC007372632F6E65776C69622F6E65776C6968
:1066EC00622F6C6962632F7374646C69622F7261C0
:1066FC006E642E6300000000D5410B001D4F0B0093
:10670C00314F0B0055510B0025520B00A9520B00B9
:10671C0011530B001D5D0B00815E0B00000000008F
:04672C000000000069
:10673000040000001400000003000000474E550054
:106740001708FE3B0F11712BA925ECDD03B431F3C3
:046750000D519AAE9F
:046754000000000041
:1067580004640B0008E603200000000000000000AD
:106768000000000000000000000000000000000021
:106778000000000000000000000000000000000011
:106788000000000000000000000000000000000001
:1067980000000000000000000000000000000000F1
:1067A80000000000000000000000000000000000E1
:0C67B8000000000000000000ECE70320DF
:1067C400FFFFFFFF00000102030405060708090A92
:1067D4000B0C0D0E0F101112131415161718191A8D
:0867E4001B1C1D1E1F202800D4
:0467EC007856341295
:04000003B000401CED
:00000001FF
